{
  "contractName": "TicTacToe",
  "abi": [
    {
      "inputs": [],
      "payable": false,
      "stateMutability": "nonpayable",
      "type": "constructor"
    },
    {
      "anonymous": false,
      "inputs": [
        {
          "indexed": false,
          "internalType": "uint256",
          "name": "gameId",
          "type": "uint256"
        },
        {
          "indexed": false,
          "internalType": "address",
          "name": "creator",
          "type": "address"
        }
      ],
      "name": "GameCreated",
      "type": "event"
    },
    {
      "anonymous": false,
      "inputs": [
        {
          "indexed": false,
          "internalType": "uint256",
          "name": "gameId",
          "type": "uint256"
        },
        {
          "indexed": false,
          "internalType": "enum TicTacToe.Winners",
          "name": "winner",
          "type": "uint8"
        }
      ],
      "name": "GameOver",
      "type": "event"
    },
    {
      "anonymous": false,
      "inputs": [
        {
          "indexed": false,
          "internalType": "uint256",
          "name": "gameId",
          "type": "uint256"
        },
        {
          "indexed": false,
          "internalType": "address",
          "name": "player",
          "type": "address"
        },
        {
          "indexed": false,
          "internalType": "uint8",
          "name": "playerNumber",
          "type": "uint8"
        }
      ],
      "name": "PlayerJoinedGame",
      "type": "event"
    },
    {
      "anonymous": false,
      "inputs": [
        {
          "indexed": false,
          "internalType": "uint256",
          "name": "gameId",
          "type": "uint256"
        },
        {
          "indexed": false,
          "internalType": "address",
          "name": "player",
          "type": "address"
        },
        {
          "indexed": false,
          "internalType": "uint256",
          "name": "xCoordinate",
          "type": "uint256"
        },
        {
          "indexed": false,
          "internalType": "uint256",
          "name": "yCoordinate",
          "type": "uint256"
        }
      ],
      "name": "PlayerMadeMove",
      "type": "event"
    },
    {
      "anonymous": false,
      "inputs": [
        {
          "indexed": false,
          "internalType": "uint256",
          "name": "money",
          "type": "uint256"
        }
      ],
      "name": "SentMoney",
      "type": "event"
    },
    {
      "anonymous": false,
      "inputs": [
        {
          "indexed": false,
          "internalType": "uint256",
          "name": "duration",
          "type": "uint256"
        },
        {
          "indexed": false,
          "internalType": "address",
          "name": "player",
          "type": "address"
        }
      ],
      "name": "TimedOut",
      "type": "event"
    },
    {
      "anonymous": false,
      "inputs": [
        {
          "indexed": false,
          "internalType": "uint256",
          "name": "gameId",
          "type": "uint256"
        },
        {
          "indexed": false,
          "internalType": "uint256",
          "name": "gameNo",
          "type": "uint256"
        },
        {
          "indexed": false,
          "internalType": "enum TicTacToe.Winners",
          "name": "winner",
          "type": "uint8"
        }
      ],
      "name": "gameDone",
      "type": "event"
    },
    {
      "constant": true,
      "inputs": [
        {
          "internalType": "address",
          "name": "",
          "type": "address"
        }
      ],
      "name": "PlayerGameMap",
      "outputs": [
        {
          "internalType": "uint256",
          "name": "",
          "type": "uint256"
        }
      ],
      "payable": false,
      "stateMutability": "view",
      "type": "function"
    },
    {
      "constant": true,
      "inputs": [
        {
          "internalType": "uint256",
          "name": "",
          "type": "uint256"
        }
      ],
      "name": "games",
      "outputs": [
        {
          "internalType": "address",
          "name": "playerOne",
          "type": "address"
        },
        {
          "internalType": "address",
          "name": "playerTwo",
          "type": "address"
        },
        {
          "internalType": "uint256",
          "name": "playerOneStake",
          "type": "uint256"
        },
        {
          "internalType": "uint256",
          "name": "playerTwoStake",
          "type": "uint256"
        },
        {
          "internalType": "uint256",
          "name": "playerOneWins",
          "type": "uint256"
        },
        {
          "internalType": "uint256",
          "name": "playerTwoWins",
          "type": "uint256"
        },
        {
          "internalType": "enum TicTacToe.Winners",
          "name": "winner",
          "type": "uint8"
        },
        {
          "internalType": "enum TicTacToe.Players",
          "name": "playerTurn",
          "type": "uint8"
        },
        {
          "internalType": "uint256",
          "name": "threshold",
          "type": "uint256"
        },
        {
          "internalType": "uint256",
          "name": "gameTime",
          "type": "uint256"
        },
        {
          "internalType": "uint256",
          "name": "duration",
          "type": "uint256"
        },
        {
          "internalType": "uint256",
          "name": "gameNo",
          "type": "uint256"
        }
      ],
      "payable": false,
      "stateMutability": "view",
      "type": "function"
    },
    {
      "constant": true,
      "inputs": [],
      "name": "nrOfGames",
      "outputs": [
        {
          "internalType": "uint256",
          "name": "",
          "type": "uint256"
        }
      ],
      "payable": false,
      "stateMutability": "view",
      "type": "function"
    },
    {
      "constant": false,
      "inputs": [],
      "name": "newGame",
      "outputs": [
        {
          "internalType": "uint256",
          "name": "gameId",
          "type": "uint256"
        },
        {
          "internalType": "address",
          "name": "creator",
          "type": "address"
        }
      ],
      "payable": false,
      "stateMutability": "nonpayable",
      "type": "function"
    },
    {
      "constant": true,
      "inputs": [],
      "name": "getNoGame",
      "outputs": [
        {
          "internalType": "uint256",
          "name": "",
          "type": "uint256"
        }
      ],
      "payable": false,
      "stateMutability": "view",
      "type": "function"
    },
    {
      "constant": false,
      "inputs": [
        {
          "internalType": "uint256",
          "name": "_gameId",
          "type": "uint256"
        },
        {
          "internalType": "uint8",
          "name": "choice",
          "type": "uint8"
        }
      ],
      "name": "joinGame",
      "outputs": [
        {
          "internalType": "bool",
          "name": "success",
          "type": "bool"
        },
        {
          "internalType": "string",
          "name": "reason",
          "type": "string"
        }
      ],
      "payable": true,
      "stateMutability": "payable",
      "type": "function"
    },
    {
      "constant": false,
      "inputs": [
        {
          "internalType": "uint256",
          "name": "_gameId",
          "type": "uint256"
        },
        {
          "internalType": "uint256",
          "name": "_xCoordinate",
          "type": "uint256"
        },
        {
          "internalType": "uint256",
          "name": "_yCoordinate",
          "type": "uint256"
        }
      ],
      "name": "makeMove",
      "outputs": [
        {
          "internalType": "bool",
          "name": "success",
          "type": "bool"
        },
        {
          "internalType": "string",
          "name": "reason",
          "type": "string"
        }
      ],
      "payable": false,
      "stateMutability": "nonpayable",
      "type": "function"
    },
    {
      "constant": true,
      "inputs": [
        {
          "internalType": "uint256",
          "name": "_gameID",
          "type": "uint256"
        },
        {
          "internalType": "uint256",
          "name": "x",
          "type": "uint256"
        },
        {
          "internalType": "uint256",
          "name": "y",
          "type": "uint256"
        }
      ],
      "name": "getCellVal",
      "outputs": [
        {
          "internalType": "string",
          "name": "",
          "type": "string"
        }
      ],
      "payable": false,
      "stateMutability": "view",
      "type": "function"
    },
    {
      "constant": true,
      "inputs": [],
      "name": "getGameCount",
      "outputs": [
        {
          "internalType": "uint256",
          "name": "",
          "type": "uint256"
        }
      ],
      "payable": false,
      "stateMutability": "view",
      "type": "function"
    },
    {
      "constant": true,
      "inputs": [],
      "name": "inGame",
      "outputs": [
        {
          "internalType": "uint256",
          "name": "",
          "type": "uint256"
        }
      ],
      "payable": false,
      "stateMutability": "view",
      "type": "function"
    },
    {
      "constant": true,
      "inputs": [
        {
          "internalType": "uint256",
          "name": "_gameID",
          "type": "uint256"
        }
      ],
      "name": "bothJoined",
      "outputs": [
        {
          "internalType": "bool",
          "name": "",
          "type": "bool"
        }
      ],
      "payable": false,
      "stateMutability": "view",
      "type": "function"
    },
    {
      "constant": true,
      "inputs": [
        {
          "internalType": "uint256",
          "name": "_gameID",
          "type": "uint256"
        }
      ],
      "name": "myNum",
      "outputs": [
        {
          "internalType": "string",
          "name": "",
          "type": "string"
        }
      ],
      "payable": false,
      "stateMutability": "view",
      "type": "function"
    },
    {
      "constant": true,
      "inputs": [
        {
          "internalType": "uint256",
          "name": "_gameID",
          "type": "uint256"
        }
      ],
      "name": "getCurPlayer",
      "outputs": [
        {
          "internalType": "string",
          "name": "",
          "type": "string"
        }
      ],
      "payable": false,
      "stateMutability": "view",
      "type": "function"
    },
    {
      "constant": true,
      "inputs": [
        {
          "internalType": "uint256",
          "name": "_gameID",
          "type": "uint256"
        }
      ],
      "name": "getGameNo",
      "outputs": [
        {
          "internalType": "uint256",
          "name": "",
          "type": "uint256"
        }
      ],
      "payable": false,
      "stateMutability": "view",
      "type": "function"
    },
    {
      "constant": true,
      "inputs": [
        {
          "internalType": "uint256",
          "name": "_gameID",
          "type": "uint256"
        }
      ],
      "name": "getScore1",
      "outputs": [
        {
          "internalType": "uint256",
          "name": "",
          "type": "uint256"
        }
      ],
      "payable": false,
      "stateMutability": "view",
      "type": "function"
    },
    {
      "constant": true,
      "inputs": [
        {
          "internalType": "uint256",
          "name": "_gameID",
          "type": "uint256"
        }
      ],
      "name": "getScore2",
      "outputs": [
        {
          "internalType": "uint256",
          "name": "",
          "type": "uint256"
        }
      ],
      "payable": false,
      "stateMutability": "view",
      "type": "function"
    }
  ],
  "bytecode": "0x608060405234801561001057600080fd5b50336000806101000a81548173ffffffffffffffffffffffffffffffffffffffff021916908373ffffffffffffffffffffffffffffffffffffffff160217905550613f71806100606000396000f3fe6080604052600436106100f35760003560e01c8063beac31ca1161008a578063e87c0ee611610059578063e87c0ee6146106e4578063f025d7781461070f578063f2ff49aa14610762578063fd5984e51461082a576100f3565b8063beac31ca146104fc578063ca6649c514610527578063caf2faaa146105e6578063cfc2f5ff14610611576100f3565b8063794f4fdc116100c6578063794f4fdc1461030b5780637d03f5f31461033657806384136983146103945780638aa2711a14610448576100f3565b8063117a5b90146100f8578063172250581461020857806339f9c9191461025757806356aca993146102bc575b600080fd5b34801561010457600080fd5b506101316004803603602081101561011b57600080fd5b8101908080359060200190929190505050610879565b604051808d73ffffffffffffffffffffffffffffffffffffffff1673ffffffffffffffffffffffffffffffffffffffff1681526020018c73ffffffffffffffffffffffffffffffffffffffff1673ffffffffffffffffffffffffffffffffffffffff1681526020018b81526020018a81526020018981526020018881526020018760038111156101bd57fe5b60ff1681526020018660028111156101d157fe5b60ff1681526020018581526020018481526020018381526020018281526020019c5050505050505050505050505060405180910390f35b34801561021457600080fd5b506102416004803603602081101561022b57600080fd5b8101908080359060200190929190505050610933565b6040518082815260200191505060405180910390f35b34801561026357600080fd5b506102a66004803603602081101561027a57600080fd5b81019080803573ffffffffffffffffffffffffffffffffffffffff169060200190929190505050610b69565b6040518082815260200191505060405180910390f35b3480156102c857600080fd5b506102f5600480360360208110156102df57600080fd5b8101908080359060200190929190505050610b81565b6040518082815260200191505060405180910390f35b34801561031757600080fd5b50610320610db7565b6040518082815260200191505060405180910390f35b34801561034257600080fd5b5061034b610dfe565b604051808381526020018273ffffffffffffffffffffffffffffffffffffffff1673ffffffffffffffffffffffffffffffffffffffff1681526020019250505060405180910390f35b3480156103a057600080fd5b506103cd600480360360208110156103b757600080fd5b8101908080359060200190929190505050611115565b6040518080602001828103825283818151815260200191508051906020019080838360005b8381101561040d5780820151818401526020810190506103f2565b50505050905090810190601f16801561043a5780820380516001836020036101000a031916815260200191505b509250505060405180910390f35b34801561045457600080fd5b506104816004803603602081101561046b57600080fd5b810190808035906020019092919050505061143e565b6040518080602001828103825283818151815260200191508051906020019080838360005b838110156104c15780820151818401526020810190506104a6565b50505050905090810190601f1680156104ee5780820380516001836020036101000a031916815260200191505b509250505060405180910390f35b34801561050857600080fd5b5061051161176c565b6040518082815260200191505060405180910390f35b6105606004803603604081101561053d57600080fd5b8101908080359060200190929190803560ff169060200190929190505050611776565b604051808315151515815260200180602001828103825283818151815260200191508051906020019080838360005b838110156105aa57808201518184015260208101905061058f565b50505050905090810190601f1680156105d75780820380516001836020036101000a031916815260200191505b50935050505060405180910390f35b3480156105f257600080fd5b506105fb6120bf565b6040518082815260200191505060405180910390f35b34801561061d57600080fd5b5061065e6004803603606081101561063457600080fd5b810190808035906020019092919080359060200190929190803590602001909291905050506120c5565b604051808315151515815260200180602001828103825283818151815260200191508051906020019080838360005b838110156106a857808201518184015260208101905061068d565b50505050905090810190601f1680156106d55780820380516001836020036101000a031916815260200191505b50935050505060405180910390f35b3480156106f057600080fd5b506106f9612b4e565b6040518082815260200191505060405180910390f35b34801561071b57600080fd5b506107486004803603602081101561073257600080fd5b8101908080359060200190929190505050612b58565b604051808215151515815260200191505060405180910390f35b34801561076e57600080fd5b506107af6004803603606081101561078557600080fd5b81019080803590602001909291908035906020019092919080359060200190929190505050612e0d565b6040518080602001828103825283818151815260200191508051906020019080838360005b838110156107ef5780820151818401526020810190506107d4565b50505050905090810190601f16801561081c5780820380516001836020036101000a031916815260200191505b509250505060405180910390f35b34801561083657600080fd5b506108636004803603602081101561084d57600080fd5b8101908080359060200190929190505050612f64565b6040518082815260200191505060405180910390f35b60026020528060005260406000206000915090508060000160009054906101000a900473ffffffffffffffffffffffffffffffffffffffff16908060010160009054906101000a900473ffffffffffffffffffffffffffffffffffffffff16908060020154908060030154908060040154908060050154908060060160009054906101000a900460ff16908060060160019054906101000a900460ff169080600a01549080600b01549080600c01549080600d015490508c565b600061093d613bcc565b60026000848152602001908152602001600020604051806101a00160405290816000820160009054906101000a900473ffffffffffffffffffffffffffffffffffffffff1673ffffffffffffffffffffffffffffffffffffffff1673ffffffffffffffffffffffffffffffffffffffff1681526020016001820160009054906101000a900473ffffffffffffffffffffffffffffffffffffffff1673ffffffffffffffffffffffffffffffffffffffff1673ffffffffffffffffffffffffffffffffffffffff168152602001600282015481526020016003820154815260200160048201548152602001600582015481526020016006820160009054906101000a900460ff166003811115610a4e57fe5b6003811115610a5957fe5b81526020016006820160019054906101000a900460ff166002811115610a7b57fe5b6002811115610a8657fe5b815260200160078201600380602002604051908101604052809291906000905b82821015610b2a57838201600380602002604051908101604052809291908260038015610b16576020028201916000905b82829054906101000a900460ff166002811115610af057fe5b81526020019060010190602082600001049283019260010382029150808411610ad75790505b505050505081526020019060010190610aa6565b505050508152602001600a8201548152602001600b8201548152602001600c8201548152602001600d8201548152505090508060a00151915050919050565b60036020528060005260406000206000915090505481565b6000610b8b613bcc565b60026000848152602001908152602001600020604051806101a00160405290816000820160009054906101000a900473ffffffffffffffffffffffffffffffffffffffff1673ffffffffffffffffffffffffffffffffffffffff1673ffffffffffffffffffffffffffffffffffffffff1681526020016001820160009054906101000a900473ffffffffffffffffffffffffffffffffffffffff1673ffffffffffffffffffffffffffffffffffffffff1673ffffffffffffffffffffffffffffffffffffffff168152602001600282015481526020016003820154815260200160048201548152602001600582015481526020016006820160009054906101000a900460ff166003811115610c9c57fe5b6003811115610ca757fe5b81526020016006820160019054906101000a900460ff166002811115610cc957fe5b6002811115610cd457fe5b815260200160078201600380602002604051908101604052809291906000905b82821015610d7857838201600380602002604051908101604052809291908260038015610d64576020028201916000905b82829054906101000a900460ff166002811115610d3e57fe5b81526020019060010190602082600001049283019260010382029150808411610d255790505b505050505081526020019060010190610cf4565b505050508152602001600a8201548152602001600b8201548152602001600c8201548152602001600d8201548152505090508060800151915050919050565b6000600360003373ffffffffffffffffffffffffffffffffffffffff1673ffffffffffffffffffffffffffffffffffffffff16815260200190815260200160002054905090565b6000806000809054906101000a900473ffffffffffffffffffffffffffffffffffffffff1673ffffffffffffffffffffffffffffffffffffffff163373ffffffffffffffffffffffffffffffffffffffff1614610ec3576040517f08c379a000000000000000000000000000000000000000000000000000000000815260040180806020018281038252601b8152602001807f4f6e6c79206f776e65722063616e206372656174652067616d6521000000000081525060200191505060405180910390fd5b610ecb613bcc565b60018160e001906002811115610edd57fe5b90816002811115610eea57fe5b81525050614e20816101200181815250504281610140018181525050600181610180018181525050620f4240816101600181815250506001600081548092919060010191905055508060026000600154815260200190815260200160002060008201518160000160006101000a81548173ffffffffffffffffffffffffffffffffffffffff021916908373ffffffffffffffffffffffffffffffffffffffff16021790555060208201518160010160006101000a81548173ffffffffffffffffffffffffffffffffffffffff021916908373ffffffffffffffffffffffffffffffffffffffff16021790555060408201518160020155606082015181600301556080820151816004015560a0820151816005015560c08201518160060160006101000a81548160ff0219169083600381111561102257fe5b021790555060e08201518160060160016101000a81548160ff0219169083600281111561104b57fe5b021790555061010082015181600701906003611068929190613c7c565b5061012082015181600a015561014082015181600b015561016082015181600c015561018082015181600d01559050507fc3e0f84839dc888c892a013d10c8f9d6dc05a21a879d0ce468ca558013e9121c60015433604051808381526020018273ffffffffffffffffffffffffffffffffffffffff1673ffffffffffffffffffffffffffffffffffffffff1681526020019250505060405180910390a16001543380905092509250509091565b606061111f613bcc565b60026000848152602001908152602001600020604051806101a00160405290816000820160009054906101000a900473ffffffffffffffffffffffffffffffffffffffff1673ffffffffffffffffffffffffffffffffffffffff1673ffffffffffffffffffffffffffffffffffffffff1681526020016001820160009054906101000a900473ffffffffffffffffffffffffffffffffffffffff1673ffffffffffffffffffffffffffffffffffffffff1673ffffffffffffffffffffffffffffffffffffffff168152602001600282015481526020016003820154815260200160048201548152602001600582015481526020016006820160009054906101000a900460ff16600381111561123057fe5b600381111561123b57fe5b81526020016006820160019054906101000a900460ff16600281111561125d57fe5b600281111561126857fe5b815260200160078201600380602002604051908101604052809291906000905b8282101561130c578382016003806020026040519081016040528092919082600380156112f8576020028201916000905b82829054906101000a900460ff1660028111156112d257fe5b815260200190600101906020826000010492830192600103820291508084116112b95790505b505050505081526020019060010190611288565b505050508152602001600a8201548152602001600b8201548152602001600c8201548152602001600d8201548152505090506001600281111561134b57fe5b8160e00151600281111561135b57fe5b141561139f576040518060400160405280600181526020017f7800000000000000000000000000000000000000000000000000000000000000815250915050611439565b6002808111156113ab57fe5b8160e0015160028111156113bb57fe5b14156113ff576040518060400160405280600181526020017f6f00000000000000000000000000000000000000000000000000000000000000815250915050611439565b6040518060400160405280600181526020017f6f000000000000000000000000000000000000000000000000000000000000008152509150505b919050565b6060611448613bcc565b60026000848152602001908152602001600020604051806101a00160405290816000820160009054906101000a900473ffffffffffffffffffffffffffffffffffffffff1673ffffffffffffffffffffffffffffffffffffffff1673ffffffffffffffffffffffffffffffffffffffff1681526020016001820160009054906101000a900473ffffffffffffffffffffffffffffffffffffffff1673ffffffffffffffffffffffffffffffffffffffff1673ffffffffffffffffffffffffffffffffffffffff168152602001600282015481526020016003820154815260200160048201548152602001600582015481526020016006820160009054906101000a900460ff16600381111561155957fe5b600381111561156457fe5b81526020016006820160019054906101000a900460ff16600281111561158657fe5b600281111561159157fe5b815260200160078201600380602002604051908101604052809291906000905b8282101561163557838201600380602002604051908101604052809291908260038015611621576020028201916000905b82829054906101000a900460ff1660028111156115fb57fe5b815260200190600101906020826000010492830192600103820291508084116115e25790505b5050505050815260200190600101906115b1565b505050508152602001600a8201548152602001600b8201548152602001600c8201548152602001600d8201548152505090503373ffffffffffffffffffffffffffffffffffffffff16816000015173ffffffffffffffffffffffffffffffffffffffff1614156116dd576040518060400160405280600181526020017f7800000000000000000000000000000000000000000000000000000000000000815250915050611767565b3373ffffffffffffffffffffffffffffffffffffffff16816020015173ffffffffffffffffffffffffffffffffffffffff161415611753576040518060400160405280600181526020017f6f00000000000000000000000000000000000000000000000000000000000000815250915050611767565b604051806020016040528060008152509150505b919050565b6000600154905090565b60006060600154841115801561178e57506000600154115b611800576040517f08c379a00000000000000000000000000000000000000000000000000000000081526004018080602001828103825260138152602001807f4e6f20737563682067616d65206578697374730000000000000000000000000081525060200191505060405180910390fd5b600060026000868152602001908152602001600020905080600a0154341015611891576040517f08c379a00000000000000000000000000000000000000000000000000000000081526004018080602001828103825260128152602001807f496e73756666696369656e74207374616b65000000000000000000000000000081525060200191505060405180910390fd5b6000600360003373ffffffffffffffffffffffffffffffffffffffff1673ffffffffffffffffffffffffffffffffffffffff1681526020019081526020016000205414611946576040517f08c379a00000000000000000000000000000000000000000000000000000000081526004018080602001828103825260118152602001807f416c726561647920696e20612067616d6500000000000000000000000000000081525060200191505060405180910390fd5b8060000160009054906101000a900473ffffffffffffffffffffffffffffffffffffffff1673ffffffffffffffffffffffffffffffffffffffff163373ffffffffffffffffffffffffffffffffffffffff16141580156119f657508060010160009054906101000a900473ffffffffffffffffffffffffffffffffffffffff1673ffffffffffffffffffffffffffffffffffffffff163373ffffffffffffffffffffffffffffffffffffffff1614155b611a68576040517f08c379a00000000000000000000000000000000000000000000000000000000081526004018080602001828103825260178152602001807f596f752061726520616c726561647920696e2067616d6500000000000000000081525060200191505060405180910390fd5b600073ffffffffffffffffffffffffffffffffffffffff168160000160009054906101000a900473ffffffffffffffffffffffffffffffffffffffff1673ffffffffffffffffffffffffffffffffffffffff161480611b175750600073ffffffffffffffffffffffffffffffffffffffff168160010160009054906101000a900473ffffffffffffffffffffffffffffffffffffffff1673ffffffffffffffffffffffffffffffffffffffff16145b611b89576040517f08c379a000000000000000000000000000000000000000000000000000000000815260040180806020018281038252600f8152602001807f416c6c2073656174732074616b656e000000000000000000000000000000000081525060200191505060405180910390fd5b60003390507f1e01c8d258ea60a59bd755ea561a66d21aa15e95a3380e3389ca549d8ccba43182600a01546040518082815260200191505060405180910390a160008560ff161480611bde575060018560ff16145b611c33576040517f08c379a000000000000000000000000000000000000000000000000000000000815260040180806020018281038252603c815260200180613e1f603c913960400191505060405180910390fd5b600073ffffffffffffffffffffffffffffffffffffffff168260000160009054906101000a900473ffffffffffffffffffffffffffffffffffffffff1673ffffffffffffffffffffffffffffffffffffffff161415611ee657808260000160006101000a81548173ffffffffffffffffffffffffffffffffffffffff021916908373ffffffffffffffffffffffffffffffffffffffff1602179055503482600201819055507f8f5866c09e99941481e2be79d3a7698371543fe3ad3387b903553fd6043e8550868260016002811115611d0857fe5b604051808481526020018373ffffffffffffffffffffffffffffffffffffffff1673ffffffffffffffffffffffffffffffffffffffff1681526020018260ff1660ff168152602001935050505060405180910390a185600360003373ffffffffffffffffffffffffffffffffffffffff1673ffffffffffffffffffffffffffffffffffffffff1681526020019081526020016000208190555060008560ff161415611ea357308260010160006101000a81548173ffffffffffffffffffffffffffffffffffffffff021916908373ffffffffffffffffffffffffffffffffffffffff1602179055503482600301819055507f8f5866c09e99941481e2be79d3a7698371543fe3ad3387b903553fd6043e85508630600280811115611e2857fe5b604051808481526020018373ffffffffffffffffffffffffffffffffffffffff1673ffffffffffffffffffffffffffffffffffffffff1681526020018260ff1660ff168152602001935050505060405180910390a160016040518060600160405280602f8152602001613e7c602f91399350935050506120b8565b60016040518060400160405280601581526020017f4a6f696e656420617320706c61796572206f6e652e00000000000000000000008152509350935050506120b8565b600073ffffffffffffffffffffffffffffffffffffffff168260010160009054906101000a900473ffffffffffffffffffffffffffffffffffffffff1673ffffffffffffffffffffffffffffffffffffffff1614156120795785600360003373ffffffffffffffffffffffffffffffffffffffff1673ffffffffffffffffffffffffffffffffffffffff16815260200190815260200160002081905550348260030181905550808260010160006101000a81548173ffffffffffffffffffffffffffffffffffffffff021916908373ffffffffffffffffffffffffffffffffffffffff1602179055507f8f5866c09e99941481e2be79d3a7698371543fe3ad3387b903553fd6043e85508682600280811115611ffe57fe5b604051808481526020018373ffffffffffffffffffffffffffffffffffffffff1673ffffffffffffffffffffffffffffffffffffffff1681526020018260ff1660ff168152602001935050505060405180910390a16001604051806060016040528060398152602001613f04603991399350935050506120b8565b60006040518060400160405280601081526020017f416c6c2073656174732074616b656e2e000000000000000000000000000000008152509350935050505b9250929050565b60015481565b6000606060015485111580156120dd57506000600154115b61214f576040517f08c379a00000000000000000000000000000000000000000000000000000000081526004018080602001828103825260138152602001807f4e6f20737563682067616d65206578697374730000000000000000000000000081525060200191505060405180910390fd5b60006002600087815260200190815260200160002090506000600381111561217357fe5b8160060160009054906101000a900460ff16600381111561219057fe5b14612203576040517f08c379a000000000000000000000000000000000000000000000000000000000815260040180806020018281038252601a8152602001807f5468652067616d652068617320616c726561647920656e64656400000000000081525060200191505060405180910390fd5b600481600d01541115612261576040517f08c379a0000000000000000000000000000000000000000000000000000000008152600401808060200182810382526037815260200180613ecd6037913960400191505060405180910390fd5b80600c015481600b0154420311156123a3577f4719ef7209543cfdc7d26e9240f79896234119be2c793bd1e1b7b9867fa630d781600b015442036122a48361319b565b604051808381526020018273ffffffffffffffffffffffffffffffffffffffff1673ffffffffffffffffffffffffffffffffffffffff1681526020019250505060405180910390a160006122f78261319b565b73ffffffffffffffffffffffffffffffffffffffff1690508073ffffffffffffffffffffffffffffffffffffffff166108fc83600301548460020154019081150290604051600060405180830381858888f1935050505015801561235f573d6000803e3d6000fd5b5060006040518060400160405280600981526020017f54696d6564206f75740000000000000000000000000000000000000000000000815250935093505050612b46565b4281600b01819055506123b58161319b565b73ffffffffffffffffffffffffffffffffffffffff163373ffffffffffffffffffffffffffffffffffffffff1614612455576040517f08c379a000000000000000000000000000000000000000000000000000000000815260040180806020018281038252600d8152602001807f4e6f7420796f7572207475726e0000000000000000000000000000000000000081525060200191505060405180910390fd5b6000600281111561246257fe5b81600701866003811061247157fe5b01856003811061247d57fe5b602091828204019190069054906101000a900460ff16600281111561249e57fe5b146124f4576040517f08c379a0000000000000000000000000000000000000000000000000000000008152600401808060200182810382526021815260200180613e5b6021913960400191505060405180910390fd5b8060060160019054906101000a900460ff1681600701866003811061251557fe5b01856003811061252157fe5b602091828204019190066101000a81548160ff0219169083600281111561254457fe5b02179055507faa03b0eb53c70f6640eba4234ad2c58782c8927e7abf7d3a6e2c45d07ca9d58386338787604051808581526020018473ffffffffffffffffffffffffffffffffffffffff1673ffffffffffffffffffffffffffffffffffffffff16815260200183815260200182815260200194505050505060405180910390a1600061267182600701600380602002604051908101604052809291906000905b8282101561266857838201600380602002604051908101604052809291908260038015612654576020028201916000905b82829054906101000a900460ff16600281111561262e57fe5b815260200190600101906020826000010492830192600103820291508084116126155790505b5050505050815260200190600101906125e4565b5050505061325e565b90506000600381111561268057fe5b81600381111561268c57fe5b14612ab7576001600381111561269e57fe5b8160038111156126aa57fe5b14156126c55781600401600081548092919060010191905055505b600260038111156126d257fe5b8160038111156126de57fe5b14156126f95781600501600081548092919060010191905055505b600482600d0154141561293c576000826005015483600401541115612780578260000160009054906101000a900473ffffffffffffffffffffffffffffffffffffffff1673ffffffffffffffffffffffffffffffffffffffff16905060018360060160006101000a81548160ff0219169083600381111561277657fe5b0217905550612844565b8260040154836005015411156127f8578260010160009054906101000a900473ffffffffffffffffffffffffffffffffffffffff1673ffffffffffffffffffffffffffffffffffffffff16905060028360060160006101000a81548160ff021916908360038111156127ee57fe5b0217905550612843565b6000809054906101000a900473ffffffffffffffffffffffffffffffffffffffff16905060038360060160006101000a81548160ff0219169083600381111561283d57fe5b02179055505b5b7fd579003e80bc481e06d15c233fac97b17ae436b83a9528d2fb1469382c07a2548884600d0154846040518084815260200183815260200182600381111561288857fe5b60ff168152602001935050505060405180910390a1600583600d01819055508073ffffffffffffffffffffffffffffffffffffffff166108fc84600301548560020154019081150290604051600060405180830381858888f193505050501580156128f7573d6000803e3d6000fd5b5060016040518060400160405280601181526020017f5468652067616d65206973206f7665722e00000000000000000000000000000081525094509450505050612b46565b60008090505b60038110156129ba5760008090505b60038110156129ac57600084600701836003811061296b57fe5b01826003811061297757fe5b602091828204019190066101000a81548160ff0219169083600281111561299a57fe5b02179055508080600101915050612951565b508080600101915050612942565b507fd579003e80bc481e06d15c233fac97b17ae436b83a9528d2fb1469382c07a2548783600d015483604051808481526020018381526020018260038111156129ff57fe5b60ff168152602001935050505060405180910390a181600d01600081548092919060010191905055506000600283600d015481612a3857fe5b061415612a6a5760028260060160016101000a81548160ff02191690836002811115612a6057fe5b0217905550612a91565b60018260060160016101000a81548160ff02191690836002811115612a8b57fe5b02179055505b6001604051806060016040528060228152602001613eab60229139935093505050612b46565b612ac08261338f565b3073ffffffffffffffffffffffffffffffffffffffff16612ae08361319b565b73ffffffffffffffffffffffffffffffffffffffff161415612b0757612b068783613414565b5b60016040518060400160405280601181526020017f596f7572207475726e206973206f7665720000000000000000000000000000008152509350935050505b935093915050565b6000600154905090565b6000612b62613bcc565b60026000848152602001908152602001600020604051806101a00160405290816000820160009054906101000a900473ffffffffffffffffffffffffffffffffffffffff1673ffffffffffffffffffffffffffffffffffffffff1673ffffffffffffffffffffffffffffffffffffffff1681526020016001820160009054906101000a900473ffffffffffffffffffffffffffffffffffffffff1673ffffffffffffffffffffffffffffffffffffffff1673ffffffffffffffffffffffffffffffffffffffff168152602001600282015481526020016003820154815260200160048201548152602001600582015481526020016006820160009054906101000a900460ff166003811115612c7357fe5b6003811115612c7e57fe5b81526020016006820160019054906101000a900460ff166002811115612ca057fe5b6002811115612cab57fe5b815260200160078201600380602002604051908101604052809291906000905b82821015612d4f57838201600380602002604051908101604052809291908260038015612d3b576020028201916000905b82829054906101000a900460ff166002811115612d1557fe5b81526020019060010190602082600001049283019260010382029150808411612cfc5790505b505050505081526020019060010190612ccb565b505050508152602001600a8201548152602001600b8201548152602001600c8201548152602001600d820154815250509050600073ffffffffffffffffffffffffffffffffffffffff16816000015173ffffffffffffffffffffffffffffffffffffffff1614158015612df35750600073ffffffffffffffffffffffffffffffffffffffff16816020015173ffffffffffffffffffffffffffffffffffffffff1614155b15612e02576001915050612e08565b60009150505b919050565b606060016002811115612e1c57fe5b600260008681526020019081526020016000206007018460038110612e3d57fe5b018360038110612e4957fe5b602091828204019190069054906101000a900460ff166002811115612e6a57fe5b1415612ead576040518060400160405280600181526020017f78000000000000000000000000000000000000000000000000000000000000008152509050612f5d565b600280811115612eb957fe5b600260008681526020019081526020016000206007018460038110612eda57fe5b018360038110612ee657fe5b602091828204019190069054906101000a900460ff166002811115612f0757fe5b1415612f4a576040518060400160405280600181526020017f6f000000000000000000000000000000000000000000000000000000000000008152509050612f5d565b6040518060200160405280600081525090505b9392505050565b6000612f6e613bcc565b60026000848152602001908152602001600020604051806101a00160405290816000820160009054906101000a900473ffffffffffffffffffffffffffffffffffffffff1673ffffffffffffffffffffffffffffffffffffffff1673ffffffffffffffffffffffffffffffffffffffff1681526020016001820160009054906101000a900473ffffffffffffffffffffffffffffffffffffffff1673ffffffffffffffffffffffffffffffffffffffff1673ffffffffffffffffffffffffffffffffffffffff168152602001600282015481526020016003820154815260200160048201548152602001600582015481526020016006820160009054906101000a900460ff16600381111561307f57fe5b600381111561308a57fe5b81526020016006820160019054906101000a900460ff1660028111156130ac57fe5b60028111156130b757fe5b815260200160078201600380602002604051908101604052809291906000905b8282101561315b57838201600380602002604051908101604052809291908260038015613147576020028201916000905b82829054906101000a900460ff16600281111561312157fe5b815260200190600101906020826000010492830192600103820291508084116131085790505b5050505050815260200190600101906130d7565b505050508152602001600a8201548152602001600b8201548152602001600c8201548152602001600d820154815250509050806101800151915050919050565b6000600160028111156131aa57fe5b8260060160019054906101000a900460ff1660028111156131c757fe5b14156131f9578160000160009054906101000a900473ffffffffffffffffffffffffffffffffffffffff169050613259565b60028081111561320557fe5b8260060160019054906101000a900460ff16600281111561322257fe5b1415613254578160010160009054906101000a900473ffffffffffffffffffffffffffffffffffffffff169050613259565b600090505b919050565b60008061326a8361358d565b90506000600281111561327957fe5b81600281111561328557fe5b146132ba576001600281111561329757fe5b8160028111156132a357fe5b146132af5760026132b2565b60015b91505061338a565b6132c3836136fc565b9050600060028111156132d257fe5b8160028111156132de57fe5b1461331357600160028111156132f057fe5b8160028111156132fc57fe5b1461330857600261330b565b60015b91505061338a565b61331c8361386b565b90506000600281111561332b57fe5b81600281111561333757fe5b1461336c576001600281111561334957fe5b81600281111561335557fe5b14613361576002613364565b60015b91505061338a565b61337583613ae3565b1561338457600391505061338a565b60009150505b919050565b6001600281111561339c57fe5b8160060160019054906101000a900460ff1660028111156133b957fe5b14156133ea5760028160060160016101000a81548160ff021916908360028111156133e057fe5b0217905550613411565b60018160060160016101000a81548160ff0219169083600281111561340b57fe5b02179055505b50565b600061341e613b7f565b905060006003828161342c57fe5b06905060006003838161343b57fe5b0490505b6000600281111561344c57fe5b84600701836003811061345b57fe5b01826003811061346757fe5b602091828204019190069054906101000a900460ff16600281111561348857fe5b146134b657613495613b7f565b9250600383816134a157fe5b069150600383816134ae57fe5b04905061343f565b8360060160019054906101000a900460ff168460070183600381106134d757fe5b0182600381106134e357fe5b602091828204019190066101000a81548160ff0219169083600281111561350657fe5b02179055507faa03b0eb53c70f6640eba4234ad2c58782c8927e7abf7d3a6e2c45d07ca9d58385308484604051808581526020018473ffffffffffffffffffffffffffffffffffffffff1673ffffffffffffffffffffffffffffffffffffffff16815260200183815260200182815260200194505050505060405180910390a15050505050565b600080600090505b60038160ff1610156136f157828160ff16600381106135b057fe5b60200201516001600381106135c157fe5b602002015160028111156135d157fe5b838260ff16600381106135e057fe5b60200201516000600381106135f157fe5b6020020151600281111561360157fe5b14801561366b5750828160ff166003811061361857fe5b602002015160026003811061362957fe5b6020020151600281111561363957fe5b838260ff166003811061364857fe5b602002015160016003811061365957fe5b6020020151600281111561366957fe5b145b80156136b257506000600281111561367f57fe5b838260ff166003811061368e57fe5b602002015160006003811061369f57fe5b602002015160028111156136af57fe5b14155b156136e457828160ff16600381106136c657fe5b60200201516000600381106136d757fe5b60200201519150506136f7565b8080600101915050613595565b50600090505b919050565b600080600090505b60038160ff161015613860578260016003811061371d57fe5b60200201518160ff166003811061373057fe5b6020020151600281111561374057fe5b8360006003811061374d57fe5b60200201518260ff166003811061376057fe5b6020020151600281111561377057fe5b1480156137da57508260026003811061378557fe5b60200201518160ff166003811061379857fe5b602002015160028111156137a857fe5b836001600381106137b557fe5b60200201518260ff16600381106137c857fe5b602002015160028111156137d857fe5b145b80156138215750600060028111156137ee57fe5b836000600381106137fb57fe5b60200201518260ff166003811061380e57fe5b6020020151600281111561381e57fe5b14155b15613853578260006003811061383357fe5b60200201518160ff166003811061384657fe5b6020020151915050613866565b8080600101915050613704565b50600090505b919050565b60008160016003811061387a57fe5b602002015160016003811061388b57fe5b6020020151600281111561389b57fe5b826000600381106138a857fe5b60200201516000600381106138b957fe5b602002015160028111156138c957fe5b14801561392f5750816002600381106138de57fe5b60200201516002600381106138ef57fe5b602002015160028111156138ff57fe5b8260016003811061390c57fe5b602002015160016003811061391d57fe5b6020020151600281111561392d57fe5b145b801561397457506000600281111561394357fe5b8260006003811061395057fe5b602002015160006003811061396157fe5b6020020151600281111561397157fe5b14155b156139a3578160006003811061398657fe5b602002015160006003811061399757fe5b60200201519050613ade565b816001600381106139b057fe5b60200201516001600381106139c157fe5b602002015160028111156139d157fe5b826000600381106139de57fe5b60200201516002600381106139ef57fe5b602002015160028111156139ff57fe5b148015613a65575081600260038110613a1457fe5b6020020151600060038110613a2557fe5b60200201516002811115613a3557fe5b82600160038110613a4257fe5b6020020151600160038110613a5357fe5b60200201516002811115613a6357fe5b145b8015613aaa575060006002811115613a7957fe5b82600060038110613a8657fe5b6020020151600260038110613a9757fe5b60200201516002811115613aa757fe5b14155b15613ad95781600060038110613abc57fe5b6020020151600260038110613acd57fe5b60200201519050613ade565b600090505b919050565b600080600090505b60038160ff161015613b745760008090505b60038160ff161015613b665760006002811115613b1657fe5b848360ff1660038110613b2557fe5b60200201518260ff1660038110613b3857fe5b60200201516002811115613b4857fe5b1415613b5957600092505050613b7a565b8080600101915050613afd565b508080600101915050613aeb565b50600190505b919050565b600080600090506000600a82604051602001808281526020019150506040516020818303038152906040528051906020012060001c81613bbb57fe5b069050600182019150809250505090565b604051806101a00160405280600073ffffffffffffffffffffffffffffffffffffffff168152602001600073ffffffffffffffffffffffffffffffffffffffff1681526020016000815260200160008152602001600081526020016000815260200160006003811115613c3b57fe5b815260200160006002811115613c4d57fe5b8152602001613c5a613cca565b8152602001600081526020016000815260200160008152602001600081525090565b8260038101928215613cb9579160200282015b82811115613cb857825182906003613ca8929190613cf7565b5091602001919060010190613c8f565b5b509050613cc69190613d99565b5090565b60405180606001604052806003905b613ce1613dc5565b815260200190600190039081613cd95790505090565b826003601f01602090048101928215613d885791602002820160005b83821115613d5957835183826101000a81548160ff02191690836002811115613d3857fe5b02179055509260200192600101602081600001049283019260010302613d13565b8015613d865782816101000a81549060ff0219169055600101602081600001049283019260010302613d59565b505b509050613d959190613de7565b5090565b613dc291905b80821115613dbe5760008181613db59190613e17565b50600101613d9f565b5090565b90565b6040518060600160405280600390602082028038833980820191505090505090565b613e1491905b80821115613e1057600081816101000a81549060ff021916905550600101613ded565b5090565b90565b506000905556fe57726f6e672063686f69636520656e74657265642d20303a506c617965722076732052616e646f6d2c20313a506c6179657220767320506c61796572496e76616c6964206d6f76652c2063686f6f736520616e6f746865722063656c6c4a6f696e656420617320706c61796572206f6e6520746f20706c617920776974682072616e646f6d206167656e742e4d61746368206f7665722c2070726f63656564696e6720746f206e657874206f6e6547616d65206c696d69742065786365656465642e204d6f6e657920616c7265616479207472616e73666572656420746f2077696e6e65724a6f696e656420617320706c617965722074776f2e20506c61796572206f6e652063616e206d616b6520746865206669727374206d6f76652ea265627a7a723158201998f10d35a849cf9a6be5d2653e12c01febd49f8d5bcdf613006c2679c5a47564736f6c63430005100032",
  "source": "pragma solidity >=0.4.21 <0.6.0;\n\n\ncontract TicTacToe {\n    address payable owner;\n    enum Players { None, PlayerOne, PlayerTwo }\n    enum Winners { None, PlayerOne, PlayerTwo, Draw }\n    uint256 public nrOfGames;\n    \n    struct Game {\n        address playerOne;\n        address playerTwo;\n        uint256 playerOneStake;\n        uint256 playerTwoStake;\n        uint256 playerOneWins;\n        uint256 playerTwoWins;\n        Winners winner;\n        Players playerTurn;\n        Players[3][3] board;\n        uint256 threshold;\n        uint256 gameTime;\n        uint256 duration;\n        uint256 gameNo;\n    }\n    constructor () public {\n        owner = msg.sender; \n    }\n    mapping(uint256 => Game) public games;\n    mapping(address => uint256) public PlayerGameMap;\n    event GameCreated(uint256 gameId, address creator);\n    event PlayerJoinedGame(uint256 gameId, address player, uint8 playerNumber);\n    event PlayerMadeMove(uint256 gameId, address player, uint xCoordinate, uint yCoordinate);\n    event GameOver(uint256 gameId, Winners winner);\n    event SentMoney(uint256 money);\n    event gameDone(uint gameId, uint gameNo, Winners winner);\n    event TimedOut(uint256 duration, address player);\n    function newGame() public returns (uint256 gameId, address creator) {\n        require(msg.sender == owner, \"Only owner can create game!\");\n        Game memory game;\n        game.playerTurn = Players.PlayerOne;\n        game.threshold = 20000;\n        game.gameTime = now;\n        game.gameNo = 1;\n        game.duration = 1000000; //10s \n        nrOfGames++;\n        games[nrOfGames] = game;\n        emit GameCreated(uint256 (nrOfGames), msg.sender);\n        return (nrOfGames, msg.sender);\n    }\n\n    function getNoGame() public view returns (uint256){\n        return nrOfGames;\n    }\n\n    function joinGame(uint256 _gameId, uint8 choice) public payable returns (bool success, string memory reason) {\n        require(_gameId <= nrOfGames && nrOfGames > 0, \"No such game exists\");\n\n        Game storage game = games[_gameId];\n        require (msg.value >= game.threshold, \"Insufficient stake\");\n        require (PlayerGameMap[msg.sender] == 0, \"Already in a game\" );\n        require(msg.sender!= address(game.playerOne) && msg.sender!= address(game.playerTwo), \"You are already in game\");\n        require(game.playerOne == address(0) || game.playerTwo == address(0), \"All seats taken\");\n        address player = msg.sender;\n        \n        emit SentMoney(game.threshold); \n\n        require(choice == 0 || choice == 1, \"Wrong choice entered- 0:Player vs Random, 1:Player vs Player\");\n\n        // Assign the new player to slot 1 if it is still available.\n        if (game.playerOne == address(0)) {\n            game.playerOne = player;\n            game.playerOneStake = msg.value;\n            emit PlayerJoinedGame(_gameId, player, uint8(Players.PlayerOne));\n            PlayerGameMap[msg.sender] = _gameId;\n            if (choice == 0){\n                game.playerTwo = address(this);\n                game.playerTwoStake = msg.value;\n                emit PlayerJoinedGame(_gameId, address(this), uint8(Players.PlayerTwo));\n                return (true, \"Joined as player one to play with random agent.\" );\n            }\n            return (true, \"Joined as player one.\");\n        }\n        if (game.playerTwo == address(0)) {\n            PlayerGameMap[msg.sender] = _gameId;\n            game.playerTwoStake = msg.value;\n            game.playerTwo = player;\n            emit PlayerJoinedGame(_gameId, player, uint8(Players.PlayerTwo));\n\n            return (true, \"Joined as player two. Player one can make the first move.\");\n        }\n        return (false, \"All seats taken.\");\n    }\n\n    \n    function makeMove(uint256 _gameId, uint _xCoordinate, uint _yCoordinate) public returns (bool success, string memory reason) {\n        require(_gameId <= nrOfGames && nrOfGames > 0, \"No such game exists\");    \n        Game storage game = games[_gameId];\n        require(game.winner == Winners.None, \"The game has already ended\");\n        require(game.gameNo <= 4, \"Game limit exceeded. Money already transfered to winner\");\n\n        if (now - game.gameTime > game.duration){\n            emit TimedOut(now - game.gameTime, getCurrentPlayer(game));\n            address payable player = address(uint256(getCurrentPlayer(game)));\n            player.transfer(game.playerOneStake + game.playerTwoStake);\n            return(false, \"Timed out\");\n        }\n        game.gameTime = now;\n        require(msg.sender == getCurrentPlayer(game), \"Not your turn\");\n        require(game.board[_xCoordinate][_yCoordinate] == Players.None, \"Invalid move, choose another cell\");\n\n        game.board[_xCoordinate][_yCoordinate] = game.playerTurn;\n        emit PlayerMadeMove(_gameId, msg.sender, _xCoordinate, _yCoordinate);\n\n        Winners winner = calculateWinner(game.board);\n        if (winner != Winners.None) {\n            if (winner == Winners.PlayerOne){\n                game.playerOneWins++;\n            }\n            if (winner == Winners.PlayerTwo){\n                game.playerTwoWins++;\n            }\n            \n             if(game.gameNo == 4){\n                address payable player;\n                if(game.playerOneWins > game.playerTwoWins){\n                    player = address(uint256(game.playerOne));\n                    game.winner = Winners.PlayerOne;\n                }\n                else if (game.playerTwoWins > game.playerOneWins){\n                    player = address(uint256(game.playerTwo));\n                    game.winner = Winners.PlayerTwo;\n                }\n                else {\n                    player = owner;\n                    game.winner = Winners.Draw;\n                }\n                emit gameDone(_gameId, game.gameNo, winner);\n                game.gameNo = 5;\n                player.transfer(game.playerOneStake + game.playerTwoStake);\n                \n                return (true, \"The game is over.\");\n            }\n\n            else {\n                for(uint i = 0; i<3; i++){\n                    for(uint j = 0; j<3;j++){\n                        game.board[i][j] = Players.None;\n                    }\n                }\n                emit gameDone(_gameId, game.gameNo, winner);\n                game.gameNo++;\n                if(game.gameNo % 2 == 0){\n                    game.playerTurn = Players.PlayerTwo;\n                }\n                else {\n                    game.playerTurn = Players.PlayerOne;\n                }\n                return (true, \"Match over, proceeding to next one\");\n            }\n        }\n\n        // A move was made and there is no winner yet.\n        // The next player should make her move.\n        nextPlayer(game);\n        if (getCurrentPlayer(game) == address(this)){\n            makeRandomMove(_gameId, game);\n        }\n        return (true, \"Your turn is over\");\n    }\n\n    function genRandomNumber() private pure returns (uint256 number){\n        uint256 key = 0;\n        uint256 random = uint256(keccak256(abi.encode(key))) % 10;\n        key += 1;\n        return random;\n    }\n\n    function makeRandomMove(uint256 _gameId, Game storage game) private{\n        uint256 random = genRandomNumber();\n        uint256 x_coordinate = random%3;\n        uint256 y_coordinate = random/3;\n\n       while (game.board[x_coordinate][y_coordinate] != Players.None){ \n            random = genRandomNumber();\n            x_coordinate = random%3;\n            y_coordinate = random/3;\n        }    \n        game.board[x_coordinate][y_coordinate] = game.playerTurn;\n        emit PlayerMadeMove(_gameId, address(this), x_coordinate, y_coordinate);\n    }\n\n    function getCurrentPlayer(Game storage _game) private view returns (address player) {\n        if (_game.playerTurn == Players.PlayerOne) {\n            return _game.playerOne;\n        }\n\n        if (_game.playerTurn == Players.PlayerTwo) {\n            return _game.playerTwo;\n        }\n\n        return address(0);\n    }\n\n   \n    function calculateWinner(Players[3][3] memory _board) private pure returns (Winners winner) {\n        // First we check if there is a victory in a row.\n        // If so, convert `Players` to `Winners`\n        // Subsequently we do the same for columns and diagonals.\n        Players player = winnerInRow(_board);\n        if (player != Players.None) {\n            return player == Players.PlayerOne ? Winners.PlayerOne : Winners.PlayerTwo;\n        }\n        \n        player = winnerInColumn(_board);\n        if (player != Players.None) {\n            return player == Players.PlayerOne ? Winners.PlayerOne : Winners.PlayerTwo;\n        }\n\n        player = winnerInDiagonal(_board);\n        if (player != Players.None) {\n            return player == Players.PlayerOne ? Winners.PlayerOne : Winners.PlayerTwo;\n        }\n\n        // If there is no winner and no more space on the board,\n        // then it is a draw.\n        if (isBoardFull(_board)) {\n            return Winners.Draw;\n        }\n\n        return Winners.None;\n    }\n\n   \n    function winnerInRow(Players[3][3] memory _board) private pure returns (Players winner) {\n        for (uint8 x = 0; x < 3; x++) {\n            if (\n                _board[x][0] == _board[x][1]\n                && _board[x][1]  == _board[x][2]\n                && _board[x][0] != Players.None\n            ) {\n                return _board[x][0];\n            }\n        }\n\n        return Players.None;\n    }\n\n    \n    function winnerInColumn(Players[3][3] memory _board) private pure returns (Players winner) {\n        for (uint8 y = 0; y < 3; y++) {\n            if (\n                _board[0][y] == _board[1][y]\n                && _board[1][y] == _board[2][y]\n                && _board[0][y] != Players.None\n            ) {\n                return _board[0][y];\n            }\n        }\n\n        return Players.None;\n    }\n\n    \n    function winnerInDiagonal(Players[3][3] memory _board) private pure returns (Players winner) {\n        if (\n            _board[0][0] == _board[1][1]\n            && _board[1][1] == _board[2][2]\n            && _board[0][0] != Players.None\n        ) {\n            return _board[0][0];\n        }\n\n        if (\n            _board[0][2] == _board[1][1]\n            && _board[1][1] == _board[2][0]\n            && _board[0][2] != Players.None\n        ) {\n            return _board[0][2];\n        }\n\n        return Players.None;\n    }\n\n    \n    function isBoardFull(Players[3][3] memory _board) private pure returns (bool isFull) {\n        for (uint8 x = 0; x < 3; x++) {\n            for (uint8 y = 0; y < 3; y++) {\n                if (_board[x][y] == Players.None) {\n                    return false;\n                }\n            }\n        }\n\n        return true;\n    }\n\n    function getCellVal(uint256 _gameID, uint256 x, uint256 y) public view returns (string memory){\n        \n        if(games[_gameID].board[x][y]== Players.PlayerOne){\n            return \"x\";\n        }\n\n        if(games[_gameID].board[x][y] == Players.PlayerTwo){\n            return \"o\";\n        }\n        return \"\";\n    }\n\n    function nextPlayer(Game storage _game) private {\n        if (_game.playerTurn == Players.PlayerOne) {\n            _game.playerTurn = Players.PlayerTwo;\n        } else {\n            _game.playerTurn = Players.PlayerOne;\n        }\n    }\n\n    function getGameCount() public view returns (uint256){\n        return nrOfGames;\n    }\n\n    function inGame() public view returns (uint256){\n        return PlayerGameMap[msg.sender];\n    }\n\n    function bothJoined(uint256 _gameID) public view returns(bool){\n        Game memory game;\n        game = games[_gameID];\n        if(game.playerOne!=address(0) && game.playerTwo !=address(0)){\n            return true;\n        }\n\n        return false;\n    }\n\n    function myNum(uint256 _gameID) public view returns (string memory){\n        Game memory game;\n        game = games[_gameID];\n        if(game.playerOne == msg.sender) {\n            return \"x\";\n        }\n\n        if(game.playerTwo==msg.sender){\n            return \"o\";\n        }\n\n        return \"\";\n    }\n\n    function getCurPlayer(uint256 _gameID) public view returns (string memory){\n        Game memory game;\n        game = games[_gameID];\n        if(game.playerTurn == Players.PlayerOne){\n            return \"x\";\n        }\n\n        if(game.playerTurn == Players.PlayerTwo){\n            return \"o\";\n        }\n        return \"o\";\n    }\n\n    function getGameNo(uint256 _gameID) public view returns (uint256){\n        Game memory game;\n        game = games[_gameID];\n        return game.gameNo;\n    }     \n\n    function getScore1(uint256 _gameID) public view returns(uint256){\n        Game memory game;\n        game = games[_gameID];\n        return (game.playerOneWins);\n    }\n\n    function getScore2(uint256 _gameID) public view returns(uint256){\n        Game memory game;\n        game = games[_gameID];\n        return (game.playerTwoWins);\n    }\n    \n\n}\n",
  "sourcePath": "/home/rupa/Downloads/projects/blockchain/contracts/TicTacToe.sol",
  "compiler": {
    "name": "solc",
    "version": "0.5.16+commit.9c3226ce.Emscripten.clang"
  },
  "schemaVersion": "3.3.2",
  "updatedAt": "2020-11-24T21:40:47.006Z",
  "networkType": "ethereum",
  "devdoc": {
    "methods": {}
  },
  "userdoc": {
    "methods": {}
  }
}